:100000000C948F050C94D7050C94D7050C94D70548
:100010000C94D7050C94D7050C94D7050C94D705F0
:100020000C94D7050C94D7050C94D5130C94A714F5
:100030000C942E220C94D7050C94D7050C94D7055C
:100040000C94D7050C94D7050C94D7050C94D705C0
:100050000C94D7050C9487220C94D7050C94D705E3
:100060000C94D7050C94D7050C94D7050C94D705A0
:100070000C94D7050C94D7050C94D7050C94D70590
:100080000C94D7050C94D7050C94D7050C94D70580
:100090000C94D7050C94D7050C94D7050C94D70570
:1000A0000C94D7050C94D7050C94D70523124A124B
:1000B00042134A1242139612B912421310131F131D
:1000C00079187918A318A318FE183219401B401B81
:1000D0004919401B341A341AFA1A401B0F1B2D1BE6
:1000E000041607090B0A1D1B06196405141A0815C6
:1000F0001C171E1F202123222E26242D25273012D7
:10010000182F0C13280F0D340E33313638111037D9
:100110002B2C352A5829787B79397A504F515272D5
:100120006C63685680668053020103555880576D92
:100130006E5462595A5B5C5D5E5F6F606174756698
:100140003E3F403C4142774476466B47804365459D
:100150008048494A4B4C3D4D3B4E3A7D7E7C7F73F7
:100160000A0025303458006164625F686F73745F01
:100170006B62645F726563763A20004552524F525B
:100180003A206D65646961206B6579300A004552DB
:10019000524F523A206D65646961206B6579310A6E
:1001A000004D3A64657465637420616761696E0A25
:1001B00000544D353A206578740A00556E6B6E6FA9
:1001C000776E0A00544D353A2064656661756C742B
:1001D0000A005D206370693D25640A0025303258AD
:1001E00020004578743A205B00436C617373696347
:1001F000203230306370690A00436C617373696345
:10020000203130306370690A004D3A6164647225B0
:100210006420726567333A20253034580A004D3A1D
:100220006D6F7665206661696C0A004D3A616464A1
:1002300072256420726567333A20253034580A00ED
:100240004D3A5B423A2530325820583A25642825E9
:10025000642920593A25642825642920413A2564D7
:100260005D0A004D3A5B2530325820253032582047
:1002700025303258202530325820253032585D0A3A
:100280000020616464723A25642C20726567333AF9
:10029000253034580A000A5363616E3A0A004D65EE
:1002A000646961206B6579730A0068616E646C65CE
:1002B000723A20253032582C2049534F3A2025736A
:1002C0000A000A4B6579626F6172643A0A00730032
:1002D000530052000A4B6579626F61726420737437
:1002E0006172742E0A000A55534220636F6E66696C
:1002F00067757265642E0A000A0A544D4B3A323310
:100300003330356164392F4C5546410A0A002E03BB
:1003100041004400420020006B006500790062004B
:100320006F00610072006400200063006F006E00C7
:1003300076006500720074006500720000000E0314
:1003400074002E006D002E006B002E0000000403D0
:10035000090409027400040100A03209040000012C
:10036000030101000921110100012240000705815C
:100370000308000A09040100010301020009211118
:10038000010001224D000705820308000A0904024A
:1003900000010300000009211101000122360007BD
:1003A00005830308000A0904030002030000000992
:1003B000211101000122220007058403200001070A
:1003C0000504032000011201100100000008EDFEE9
:1003D000DB0A0101010200010631FF0974A10109D4
:1003E00075150026FF009520750881020976150015
:1003F00026FF00952075089102C005010980A10122
:1004000085021601002637001A81002AB7007510F0
:1004100095018100C0050C0901A1018503160100A9
:10042000269C021A01002A9C02751095018100C0C9
:1004300005010902A1010901A10005091901290508
:10044000150025019505750181029501750381014E
:100450000501093009311581257F9502750881064E
:1004600009381581257F950175088106050C0A3824
:10047000021581257F950175088106C0C005010917
:1004800006A101050719E029E71500250195087562
:100490000181029501750881010508190129059559
:1004A0000575019102950175039101050719002950
:1004B000FF150026FF00950675088100C0636F6E6A
:1004C00073756D65723A20253034580A007379735C
:1004D00074656D3A20253034580A000A0025303200
:1004E0005820006B6579626F6172643A20004C4558
:1004F000443A20253032580A00253032583A202517
:1005000030386225730A00722F6320303132333461
:100510003536370A00290A002575002F0025750099
:100520005D2800256400200025640020002564006B
:1005300020002564007C0025303258006D6F7573F3
:10054000656B6579205B62746E7C782079207620FB
:10055000685D287265702F61636C293A205B006DBD
:100560006B5F776865656C5F74696D655F746F5FFD
:100570006D6178203D2025640A006D6B5F776865AA
:10058000656C5F6D61785F7370656564203D2025E3
:10059000640A006D6B5F74696D655F746F5F6D6198
:1005A00078203D2025640A006D6B5F6D61785F7374
:1005B00070656564203D2025640A006D6B5F696E7F
:1005C00074657276616C203D2025640A006D6B5F56
:1005D00064656C6179203D2025640A006D6B5F774E
:1005E0006865656C5F74696D655F746F5F6D617878
:1005F000203D2025640A006D6B5F776865656C5F40
:100600006D61785F7370656564203D2025640A0024
:100610006D6B5F74696D655F746F5F6D6178203DB0
:100620002025640A006D6B5F6D61785F737065658E
:1006300064203D2025640A006D6B5F696E746572ED
:1006400076616C203D2025640A006D6B5F64656CEB
:100650006179203D2025640A000A00257500363A9C
:1006600020776865656C5F74696D655F746F5F6D39
:1006700061783A20000A00257500353A20776865D0
:10068000656C5F6D61785F73706565643A20000A20
:1006900000257500343A2074696D655F746F5F6D75
:1006A00061783A20000A00257500333A206D6178A0
:1006B0005F73706565643A20000A00257500323A60
:1006C00020696E74657276616C286D73293A20001A
:1006D0000A00257500313A2064656C6179282A3159
:1006E000306D73293A20000A092D2056616C75651A
:1006F00073202D0A004D3E004D25643E20003F0032
:100700007365742064656661756C740A00433E20ED
:100710000077686572652064656C74613A20637562
:1007200072736F723D25642C20776865656C3D257A
:10073000640A53656520687474703A2F2F656E2EB5
:1007400077696B6970656469612E6F72672F77696D
:100750006B692F4D6F7573655F6B6579730A000A5E
:10076000092D204D6F7573656B6579202D0A4553F2
:10077000432F713A09717569740A313A0964656CDD
:100780006179282A31306D73290A323A09696E7409
:10079000657276616C286D73290A333A096D617848
:1007A0005F73706565640A343A0974696D655F74D6
:1007B0006F5F6D61780A353A09776865656C5F6DC2
:1007C00061785F73706565640A363A0977686565B4
:1007D0006C5F74696D655F746F5F6D61780A0A7034
:1007E0003A097072696E742076616C7565730A647B
:1007F0003A097365742064656661756C74730A7573
:10080000703A092B310A646F776E3A092D310A70FC
:100810006775703A092B31300A7067646F776E3AEA
:10082000092D31300A0A7370656564203D206465C6
:100830006C7461202A206D61785F73706565642037
:100840002A2028726570656174202F2074696D6597
:100850005F746F5F6D6178290A003F004D3E200094
:10086000433E20004C25640A000A092D20436F6E88
:10087000736F6C65202D0A4553432F713A097175CA
:1008800069740A6D3A096D6F7573656B65790A0055
:100890000A092D204D61676963202D0A643A0964B5
:1008A000656275670A783A096465627567206D61EB
:1008B000747269780A6B3A096465627567206B65C2
:1008C00079626F6172640A6D3A09646562756720C6
:1008D0006D6F7573650A763A0976657273696F6E26
:1008E0000A733A097374617475730A633A09636F22
:1008F0006E736F6C65206D6F64650A302D343A0934
:100900006C61796572302D34284631302D4634299A
:100910000A506175733A09626F6F746C6F61646538
:10092000720A003F0074696D65725F7265616433BD
:100930003228293A202530346C580A006B657962D8
:100940006F6172645F69646C653A2025580A006BB8
:100950006579626F6172645F70726F746F636F6CE0
:100960003A2025580A00686F73745F6B6579626F6F
:100970006172645F6C65647328293A2025580A0007
:100980000A092D20537461747573202D0A004743A2
:10099000433A20352E342E30204156522D4C4942B8
:1009A000433A20322E302E30204156525F4152437E
:1009B000483A20617672350A004F5054494F4E53E1
:1009C0003A204C554641204D4F5553454B455920F3
:1009D00045585452414B455920434F4E534F4C4577
:1009E00020434F4D4D414E44204B45594D41505FA2
:1009F00053454354494F4E20343039360A0042554E
:100A0000494C443A2032333330356164392028313F
:100A1000353A32373A33372041707220323520323E
:100A2000303230290A005649443A2030784645454C
:100A30004428742E6D2E6B2E29205049443A2030C4
:100A4000783041444228414442206B6579626F61AD
:100A5000726420636F6E76657274657229205645E4
:100A6000523A203078303130310A00444553433A0D
:100A700020636F6E7665727420414442206B657905
:100A8000626F61726420746F205553420A000A0934
:100A90002D2056657273696F6E202D0A000A6D6FE6
:100AA0007573653A206F66660A000A6D6F75736527
:100AB0003A206F6E0A000A6B6579626F6172643A60
:100AC000206F66660A000A6B6579626F6172643A2C
:100AD000206F6E0A000A6D61747269783A206F6641
:100AE000660A000A6D61747269783A206F6E0A00B6
:100AF0000A64656275673A206F6E0A000A6465626F
:100B000075673A206F66660A000A0A626F6F746C36
:100B10006F616465722E2E2E2000433E200011244A
:100B20001FBECFEFDAE0DEBFCDBF04B603FE28C0A4
:100B30008091800390918103A0918203B0918303FF
:100B40008730904BA740B04BD9F41092800310929D
:100B50008103109282031092830314BE0FB6F8949F
:100B6000A895809160008861809360001092600079
:100B70000FBE1092010810920008E0E0F8E309951A
:100B800011E0A0E0B1E0E2ECF5E502C005900D92C5
:100B9000A235B107D9F723E0A2E5B1E001C01D926B
:100BA000A038B207E1F70E94410F0C94DF2A0C94A1
:100BB0000000FF93EF93E0915201F09153013097C1
:100BC00009F00995EF91FF910895FC01859180301E
:100BD00011F0EFDFFBCF0895FF27E0E230E247FF9F
:100BE0000CC0419597FF09C0EDE260957095809526
:100BF0009095611D711D811D911D27FF02C02195DA
:100C000030E350E2AA27660F771F881F991FAA1F9B
:100C1000A41710F0A41B63955A95A9F7AA3008F001
:100C2000A95FA05DAF93F3956115710581059105ED
:100C300041F7ED3211F4EF93F395F21718F43F9367
:100C4000F395FBCF8F91B5DFFA95E1F70895E99120
:100C5000F9918591803021F0853219F0AADFF9CF22
:100C6000089520E0E89455915532C1F3503311F4C2
:100C7000689455915A3348F4505390F3220F022E42
:100C8000220F220F200D250FF4CF0EF4219589910C
:100C90009991533619F3533729F1533559F1BC0162
:100CA00088279927E8945C3621F489919991689472
:100CB0005591543639F446EF7EF077FF0DC08FEF33
:100CC0009FEF0AC055374AE039F0583540E121F02E
:100CD000523642E009F00895FF93EF937DDFEF91E4
:100CE000FF91B7CFFF93EF93FC0181918030B9F36F
:100CF00060DFFBCFFF93EF9368DFF1CFDF93CF93FC
:100D0000CDB7DEB72596A3DFCF91DF910895282FC9
:100D10002770E82FE695E695E695EF70F0E0E05A4B
:100D2000FE4F87FF0AC081E090E001C0880F2A953E
:100D3000EAF780959081892308C081E090E001C0A6
:100D4000880F2A95EAF79081892B808308950F9365
:100D50001F93CF93DF9386E992E09F938F930E9436
:100D60007E060F900F90C0E0D0E001E812E063E053
:100D70008C2F0E94F30B009771F09F938F93DF935A
:100D8000CF931F930F930E947E060F900F900F90AA
:100D90000F900F900F902196C031D10541F7DF9150
:100DA000CF911F910F9108953F924F925F926F9252
:100DB0007F928F929F92AF92BF92CF92DF92EF92EB
:100DC000FF920F931F93CF93DF93CDB7DEB7289792
:100DD0000FB6F894DEBF0FBECDBF80915901909140
:100DE0005A010E9478220C9708F484C20E94602263
:100DF00090935A0180935901809157019091580125
:100E00000E947822893E934008F458C10E946022D3
:100E10009093580180935701EBEB4E2EE1E05E2E4C
:100E2000F4EC6F2EF1E07F2EA2EECA2EA1E0DA2EB6
:100E3000BCEDAB2EB1E0BB2E63E083E00E94F30B70
:100E40008C01009709F43AC11F938F931F9283E09E
:100E50008F938BE292E09F938F930E947E0683E0B4
:100E60000E94640C412F4F602EEF63E083E00E94EC
:100E7000520C8FE00E94640C63E08FE00E94F30B41
:100E80008C010F900F900F900F900F900F90009784
:100E900029F0982E74E6E72EF12C69C08EE192E0DD
:100EA0009F938F930E947E060F900F90C5CF8FE087
:100EB0000E94640C24E0412F63E08FE00E94520CFA
:100EC00063E08FE00E94F30B8C01982E31E08313D6
:100ED0000FC08FE00E94640C22E0412F63E08FE09E
:100EE0000E94520C63E08FE00E94F30B8C01982E5D
:100EF0001F930F931F928FE08F9369E072E07F93AF
:100F00006F930E947E060F900F900F900F900F909E
:100F10000F9091E0991230C029EF31E03F932F9369
:100F20000E947E06F0921301E09212010F900F9042
:100F30008FE00E94640C412F407F4A602EEF63E0F7
:100F40008FE00E94520C8AE00E94640C63E08FE004
:100F50000E94F30B8C01982E892B09F46DCF81EA46
:100F600091E09F938F930E947E060F900F908FEFDA
:100F7000890D823088F49BCF62E096120DC089EE15
:100F800091E09F938F930E947E0668EC70E07093CF
:100F9000130160931201CACF74E0971271C028E068
:100FA000AE014F5F5F4F61E08FE00E946E0B8630B5
:100FB00050F02D813E8132272327322730931301B1
:100FC0002093120106C0F0921301E09212018823CF
:100FD000B9F1882E912C1F928F93DF92CF920E94AD
:100FE0007E060F900F900F900F90312C832D032CC5
:100FF000000C990B881599059CF4E1E0F0E0EC0FEA
:10100000FD1FE80FF91F80811F928F93BF92AF924F
:101010000E947E0633940F900F900F900F90E6CFB2
:10102000809113018F93809112018F9382ED91E053
:101030009F938F930E947E060F900F900F900F90BA
:1010400089818B34C1F48A818D34A9F48B818C34ED
:1010500091F48C81813379F47F926F920E947E06A5
:101060008FE00E94640C2EEF412F407F63E08FE001
:101070000E94520C5BCF5F924F920E947E0656CF29
:1010800032E3931255CF61EB71E07F936F930E942F
:101090007E068FE00E94640C28E04AE051E062E0A6
:1010A0008FE00E94190C8FE00E94640C28E042E05F
:1010B00051E062E08FE00E94190C38CF25E0AE01CC
:1010C0004F5F5F4F60E08AE00E946E0B182F823006
:1010D00010F481E00DC18D811F928F938C811F923E
:1010E0008F938B811F928F938A811F928F93898117
:1010F0001F928F9383E692E09F938F930E947E06C8
:101100000FB6F894DEBF0FBECDBF123049F49981FF
:1011100096FB992790F98A8186FB882780F90AC077
:10112000FE01E10FF11D808186FB992790F982FB7A
:10113000882780F948EF58E81530E0F4212F012E78
:10114000000C330BE1E0F0E0EC0FFD1FE20FF31FAA
:10115000911102C0508301C04083882349F0E1E02F
:10116000F0E0EC0FFD1FE20FF31F208127602083CA
:101170001F5FE2CF2D8123FF02C080E001C080E825
:1011800027FF80644C8143FF806247FF80616B8151
:1011900063FF886067FF84603A8137FF826059810E
:1011A00057FF816080935B01A62FA07778E0A79F0F
:1011B000D0011124942F907770E4979FF0011124AF
:1011C000EA2BFB2B5F77DF01A52BE22FE077F0E026
:1011D000FE2FEE27FF0FEA2BFB2B932F9F7730E09C
:1011E000322F22273295330F307E292B677090E8FB
:1011F000699FB0011124262B372B477050E0542FE4
:101200004427550F550F242B352B90915601A92FAC
:10121000092E000CBB0B2A9FA0012B9F500D3A9F5B
:10122000500D112441386FEF560714F441E85FEF79
:1012300051954195510941387FEF570714F441E822
:101240005FEF419540935C01EA9FB001EB9F700D09
:10125000FA9F700D112461385FEF750714F461E88F
:101260007FEF71956195710961385FEF750714F42F
:1012700061E87FEF619560935D01BF939F93FF935A
:10128000EF93E62F062E000CFF0BFF936F933F9317
:101290002F93242F042E000C330B3F934F931F9258
:1012A0008F9380E492E09F938F930E947E068BE55C
:1012B00091E00E94461580915601482F082E000C9F
:1012C000550B0FB6F894DEBF0FBECDBF20911201B3
:1012D00030911301283C310518F428E030E002C0B9
:1012E00024E030E091E0421753070CF090E0890FC2
:1012F0008093560128960FB6F894DEBF0FBECDBF7F
:10130000DF91CF911F910F91FF90EF90DF90CF90E1
:10131000BF90AF909F908F907F906F905F904F9015
:101320003F9008951F93CF93DF93C0910001D09118
:1013300001018FEF9FEF9093010180930001CF3F58
:101340008FEFD80709F074C0809154019091550136
:101350000E9478220C9710F480E0BAC00E946022AC
:10136000909355018093540182E00E94160CEC0189
:10137000892B09F05DC080917101882309F458C060
:1013800087E00E94160C009709F452C09C012F7749
:10139000332722303105A1F048F42115310569F0D9
:1013A0002130310599F480788A641AC023303105E0
:1013B00051F02F373105A1F009C08078826410C048
:1013C000807889640DC0807888640AC08EE891E0D6
:1013D0009F938F930E947E060F900F9081E178C0BB
:1013E000292F33272F7733272130310579F050F01B
:1013F0002230310579F02330310581F49078EC0109
:10140000D86416C09078EC01D26412C09078EC01D8
:10141000DA640EC09078EC01D9640AC08BE791E0E1
:101420009F938F930E947E060F900F9080E150C093
:101430008091620381FF18C0209709F48DCF87E661
:1014400091E00E94E505DF93CF9382E691E09F93C0
:101450008F930E947E0680E691E00E94E5050F9042
:101460000F900F900F9003C0209709F475CFCF37DE
:101470008FE7D80711F48FE705C0CF3F8FEFD8076C
:1014800021F48FEF0E94870622C08D2F1C2FDF3F93
:1014900011F48C2F1FEF90917001992359F0982F20
:1014A0009F77923319F480788A6004C09A3011F4DF
:1014B000807882630E9487061F3F49F0812F90E069
:1014C000982F88278F6F909301018093000181E00E
:1014D000DF91CF911F910895E82FF0E0E05AFE4F81
:1014E00080810895682F609582E00C947B0C809138
:1014F0006203816080936203569A5E9A0E946A0B2F
:101500002FEF83ED90E3215080409040E1F700C041
:1015100000000E94A70682EC92E09F938F930E94A6
:101520007E0663E082E00E94F30B99270F900F90F4
:101530008131910539F190F48730910519F138F432
:101540009C01245031092230310500F51BC089303F
:101550009105C1F08D309105C9F414C08D3191050C
:1015600089F038F48431910569F08931910571F47D
:1015700009C0843C910531F0873C910519F0813C0C
:10158000910521F421E02093700102C010927001B6
:1015900020917001211103C021E331E002C02DE24E
:1015A00031E03F932F939F938F938AEA92E09F932A
:1015B0008F930E947E0663E087E00E94F30B9927D9
:1015C00021E00F900F900F900F900F900F908230AE
:1015D000910509F020E020937101029741F48EE912
:1015E00092E09F938F930E947E060F900F9023E0CE
:1015F00042E063E082E00E94520CE0E6F1E01192EA
:1016000021E0E037F207D9F70E94F1140E94720A34
:101610000E94A706569A5E980895509A83E091E03A
:101620000197F1F700C0000050989AEB9A95F1F7F6
:1016300000C00895509A8AEB8A95F1F700C050983F
:1016400083E091E00197F1F700C000000895EF9268
:10165000FF920F931F93CF93DF93C0E0D0E090E809
:10166000E92EF12C082F10E0C7010C2E02C0959531
:1016700087950A94E2F780239123892B19F00E9421
:101680001A0B02C00E940D0B2196C830D10561F7DC
:10169000DF91CF911F910F91FF90EF900895509A95
:1016A00083EF9BE00197F1F700C000000C941A0B48
:1016B000489B06C023E02A95F1F700000197C1F787
:1016C0000895489906C023E02A95F1F70000019794
:1016D000C1F708955898509808950895EF92FF9291
:1016E0000F931F93CF93DF93C82F162F7A01D22F1A
:1016F00080E0422F50E0282F082E000C330B2417D7
:10170000350734F4F701E20FF31F10828F5FF3CF38
:10171000F8940E944F0B80E1C89F90011124812F03
:101720008C60822B0E94270B0E940D0B84EF91E0AE
:101730000E94610B892B19F482ED92E01AC084EFAC
:1017400091E00E94580B892B19F4789480E044C0F2
:1017500088E290E00E94610B892B19F480ED92E001
:1017600008C084E690E00E94580B892B51F48EEC5F
:1017700092E09F938F930E947E0678940F900F9033
:10178000E5CFC0E082E890E00E94610B8823F9F089
:101790008C011127C8010E94580B8823C1F09C2F8F
:1017A0009695969596959D1780F4F701E90FF11D92
:1017B0009081990F22E830E0201B310B081B1109A2
:1017C000201731070CF491609083CF5FD9F678949D
:1017D0008C2F869586958695DF91CF911F910F91DD
:1017E000FF90EF900895CF93DF93CDB7DEB72897A2
:1017F0000FB6F894DEBF0FBECDBF28E0AE014F5F3D
:101800005F4F0E946E0B823031F489819A81982754
:101810008927982702C080E090E028960FB6F894B8
:10182000DEBF0FBECDBFDF91CF91089560E00C9475
:10183000F30BEF92FF921F93CF93DF93D82F162FC6
:101840007A01C22FF8940E944F0B80E1D89F90013B
:101850001124812F8860822B0E94270B0E940D0B80
:101860008FE193E00197F1F700C000000E941A0B8E
:1018700010E0D0E0812F012E000C990B8C179D07F2
:1018800044F4F701E80FF91F80810E94270B1F5FC6
:10189000F1CF0E940D0B7894DF91CF911F91FF90B3
:1018A000EF900895CF93DF9300D0CDB7DEB7498393
:1018B0002A8322E0AE014F5F5F4F0E94190C0F9008
:1018C0000F90DF91CF910895CF93C82FF8940E9485
:1018D0004F0B20E1C29FC001112481600E94270BA1
:1018E0000E940D0B8FE193E00197F1F700C000001B
:1018F0007894CF910895262F277040E062E00C94F1
:10190000520C80917E020895CF93DF9300D01F92F6
:10191000CDB7DEB79C0180917703843019F593E051
:1019200099833B832A839093E9008FEF9091E8009D
:10193000815095FD06C095ED9A95F1F70000811153
:10194000F5CF8091E80085FF0DC040E050E063E0F6
:1019500070E0CE0101960E94F0108091E8008E7731
:101960008093E8000F900F900F90DF91CF91089532
:10197000CF93DF9300D01F92CDB7DEB720917703CE
:10198000243031F522E02983805891099B838A8392
:1019900083E08093E9008FEF9091E800815095FDFE
:1019A00006C095ED9A95F1F700008111F5CF809171
:1019B000E80085FF0DC040E050E063E070E0CE013C
:1019C00001960E94F0108091E8008E778093E800E5
:1019D0000F900F900F90DF91CF9108952091770392
:1019E0002430F1F422E02093E9002FEF3091E80059
:1019F000215035FD06C035ED3A95F1F70000211173
:101A0000F5CF2091E80025FF0BC040E050E065E0F5
:101A100070E00E94F0108091E8008E778093E800DB
:101A20000895CF93DF9320917703243049F521E087
:101A30002093E90021E8215059F03091E80035FD6C
:101A400007C0EFE3F1E03197F1F700C00000F3CFFA
:101A50002091E80025FF14C0EC0140E050E068E070
:101A600070E00E94F0108091E8008E778093E8008B
:101A700088E0FE01A6E7B2E001900D928A95E1F7B9
:101A8000DF91CF910895CF93C0917401C1110BC024
:101A90000E946C22643C79408105910520F081E030
:101AA00080937401C1E08C2FCF910895FF920F9322
:101AB0001F93CF93DF93D82F0FB607FE83C080917B
:101AC0007703843081F08091170190E00196209196
:101AD000190130E0822393232091180130E082170E
:101AE000930709F0CDC00E94430D811110C0809171
:101AF000170190E001962091190130E08223932391
:101B00002091180130E08217930709F0B9C00E94B4
:101B100060228C01C091E900CF709091EC00892F78
:101B2000817090FD80E8C82B84E08093E90085E017
:101B3000F82E8091EB0085FD42C08091EB0080FF84
:101B40003EC08091EE0087FF3AC0809118019091CD
:101B50001701981709F457C09091E80095FF8EC0BF
:101B6000E0911501F0911601E80FF11D20818F5FC2
:101B7000909119018923809318012093F10080919D
:101B8000E80085FDE2CF8091E80080FFDECF809104
:101B9000E8008E778093E800F0921401D6CF809110
:101BA000170190E001962091190130E082239323E0
:101BB0002091180130E08217930709F44CC0CF70D0
:101BC000C093E90040911701842F90E00196209185
:101BD000190130E0822393232091180130E082170D
:101BE000930709F450C0E0911501F0911601E40F3C
:101BF000F11DD083809117018F5F90911901892386
:101C00008093170140C08091E80085FF37C0D093D2
:101C1000F10021E03091F3008091F20090E0932BED
:101C2000892B91F08091E80080FF0EC08091E80040
:101C300085FF03C01092F100F9CF8091E8008E7704
:101C40008093E800F0921401222309F4A8CFCF700A
:101C5000C093E90018C080911401882309F4AFCF24
:101C60000E9460229C018017910711F4890161CFC5
:101C700090911401915090931401F8CF20E0CACFB5
:101C800040911701B0CF80E0DF91CF911F910F916C
:101C9000FF90089580917603811104C00E945A1329
:101CA0000C94B7130895109276030895089542E0B6
:101CB00061EC81E00E94691042E061EC82E00E94E8
:101CC000691042E061EC83E00E94691042E261EC3D
:101CD00084E00C94691080917903833009F453C037
:101CE00030F4813071F0823009F48CC008958A306C
:101CF00009F478C08B3009F45EC0893009F09AC0CD
:101D000020C080917803813A09F094C08091E80066
:101D1000877F8093E80080917C0390917D03892BDD
:101D200021F468E086E792E003C060E080E090E0A4
:101D300070E00E943B118091E8008B778093E8006F
:101D4000089580917803813209F074C080917C03FA
:101D500090917D03892B09F06DC08091E800877F09
:101D60008093E8008091E80082FD05C080917703B0
:101D70008111F8CF5FC08091F10080937E02809145
:101D8000E8008B7753C080917803813A09F052C004
:101D900080917C0390917D03892B09F04BC0809149
:101DA000E800877F8093E8008091E80080FFFCCF07
:101DB0008091240136C0809178038132D9F58091D9
:101DC0007C0390917D03892BA9F58091E800877FA2
:101DD0008093E8000E949E1080917A0380932401F2
:101DE0000C94291880917803813221F58091E800C4
:101DF000877F8093E8000E949E1080917B038093F0
:101E00007F02089580917803813AA1F48091E800DF
:101E1000877F8093E8008091E80080FFFCCF80916D
:101E20007F028093F1008091E8008E778093E80034
:101E30000C949E10089580917E02809375011092FB
:101E40007E020E945A160C9429180C941B0F0E94B3
:101E5000ED2180917503882329F00E9416228111BB
:101E60000C94531008950E942A228091750180934A
:101E70007E0208950C94330F08950C943C0F0C943B
:101E80003C0FCF9384B7877F84BF0FB6F894A89593
:101E900080916000886180936000109260000FBEA6
:101EA00090E080E80FB6F894809361009093610011
:101EB0000FBE86E59DE00E94C0218AE191E00E946C
:101EC000EC1488EF92E00E94E5050E943F0F0E940B
:101ED000AB150E945A130E94B71378940E94AD1557
:101EE00080917703843019F00E943C0FF9CF86EE81
:101EF00092E00E94E5050E943D0F84ED92E00E9471
:101F0000E505C4E080917703853019F40E94270F1E
:101F1000F9CF0E94B3152091E4003091E500809143
:101F20007201909173012817390761F38091E400E1
:101F30009091E50090937301809372010E94430D8C
:101F4000882301F3809177038430E1F68091E900E2
:101F50008F702091EC00922F917020FD90E8892BDA
:101F6000C093E9009091EB0090FF43C09091EE0088
:101F700097FF3FC09091180120911701291709F18F
:101F80002091E80025FF1DC0E0911501F091160198
:101F9000E90FF11D30819F5F2091190192239093E9
:101FA00018013093F1009091E80095FDE3CF9091F6
:101FB000E80090FFDFCF9091E8009E779093E800D3
:101FC000D9CF9091F3002091F20030E0392B232BF0
:101FD00081F09091E80090FF0CC09091E80095FF8F
:101FE00003C01092F100F9CF9091E8009E77909392
:101FF000E8008F708093E90085CF292F33272330A5
:102000003105C9F060F42130310581F0223031050D
:1020100009F041C084E790E022E533E040C021327E
:102020003105E1F02232310531F135C082E190E035
:1020300026EC33E034C099278130910549F028F02F
:10204000029749F5EEE0F3E005C0EEE4F3E002C0EC
:10205000EEE3F3E0849190E09F0121C064307105CC
:10206000D0F4660F771FFB01E05CFE4F20813181C9
:1020700089E090E014C06430710568F4FB01EE0F54
:10208000FF1FE85CFE4F20813181FB01EC5CFE4FBD
:10209000808190E004C080E090E020E030E0FA0130
:1020A00031832083089580E189BD82E189BD09B42F
:1020B00000FEFDCF8091D8008F7D8093D800809165
:1020C000E00082608093E0008091E00081FDFCCF21
:1020D0000895982F973068F59093E900981739F094
:1020E0007091EC002091ED005091F00003C0242F7E
:1020F000762F50E021FD02C09F5FECCF3091EB00C6
:102100003E7F3093EB003091ED003D7F3093ED004A
:102110003091EB0031603093EB007093EC00209332
:10212000ED005093F0002091EE0027FDE5CF80E018
:1021300008958F708093E90081E00895809178037D
:1021400087FF11C08091E80082FD05C08091770370
:102150008111F8CF11C08091E8008B770BC080917E
:102160007703882349F08091E80080FFF8CF8091C1
:10217000E8008E778093E80008952091E400309184
:10218000E50095E64091EC00842F817040FF23C06C
:102190008091E80080FD1DC080917703882399F02D
:1021A000853099F08091EB0085FD11C04091E400ED
:1021B0005091E5002417350729F3915011F09A0149
:1021C000E1CF84E0089582E0089583E0089581E0FE
:1021D000089580E008954091E80042FFDDCF089522
:1021E000CF92DF92EF92FF920F931F93CF93DF93E3
:1021F000EC018B017A010E94BD10811133C0E11402
:10220000F10439F0F70180819181081B190BC80F87
:10221000D91FC12CD12C0115110519F18091E800AD
:1022200085FD16C08091E8008E778093E800E11468
:10223000F10449F0F70180819181C80ED91ED18245
:10224000C08285E00FC00E94BD10882321F30AC020
:1022500089918093F10001501109FFEFCF1ADF0A35
:10226000DACF80E0DF91CF911F910F91FF90EF9037
:10227000DF90CF90089520917E0330917F03261741
:10228000370748F06115710539F42091E8002E7781
:102290002093E80001C0B901FC0120E0611571053F
:1022A00079F1809177038823F1F18530F1F1809104
:1022B000E80083FD3CC08091E80082FD2EC0809143
:1022C000E80080FFEBCF2091F3008091F20090E0D6
:1022D000922B6115710551F08830910538F42191E8
:1022E0002093F100615071090196F3CF21E0089726
:1022F00009F020E08091E8008E778093E800CECF4F
:102300002111CFCF0AC080917703882361F08530F7
:1023100061F08091E80083FD0AC08091E80082FFAF
:10232000F2CF80E0089582E0089583E0089581E08F
:10233000089520917E0330917F032617370748F0D8
:102340006115710539F42091E8002E772093E8009B
:1023500001C0B901FC0120E06115710591F1809186
:102360007703882309F440C0853009F43FC0809189
:10237000E80083FD3DC08091E80082FD2FC0809180
:10238000E80080FFE9CF2091F3008091F20090E017
:10239000922B6115710559F08830910540F4249114
:1023A0002093F1003196615071090196F2CF21E03E
:1023B000089709F020E08091E8008E778093E8008C
:1023C000CBCF2111CCCF0AC080917703882361F055
:1023D000853061F08091E80083FD0AC08091E800BB
:1023E00082FFF2CF80E0089582E0089583E00895AF
:1023F00081E008951F93CF93DF93CDB7DEB7AA97FF
:102400000FB6F894DEBF0FBECDBFE8E7F3E08091D2
:10241000F100819323E0E038F207C9F70E946B0EC8
:102420008091E80083FF2EC1809178039091790319
:10243000492F50E04A30510508F024C1FA01EA5A08
:10244000FF4F0C94C52A803821F0823809F01AC158
:1024500008C08091740390917503992389F082607C
:102460000FC080917C038F70873008F00BC1809380
:10247000E9008091EB0085FB882780F91092E90044
:102480009091E800977F9093E8008093F10010927C
:10249000F100D1C0282F2D7F09F0F4C0882319F056
:1024A000823061F0EFC080917A03813009F0EAC098
:1024B000933009F080E0809375032EC080917A03F9
:1024C00081112AC080917C038F702FEF280F263056
:1024D00008F0D8C08093E9002091EB0020FF1CC0D9
:1024E000933021F48091EB00806214C09091EB0056
:1024F00090619093EB0021E030E0A90102C0440F0D
:10250000551F8A95E2F74093EA001092EA00809105
:10251000EB0088608093EB001092E9008091E80066
:10252000877F8093E8000E949E10ACC08111AAC0F2
:1025300010917A031F778091E3008078812B80933C
:10254000E3008091E800877F8093E8000E949E105E
:102550008091E80080FFFCCF8091E3008068809349
:10256000E300111102C082E001C083E08093770391
:1025700089C08058823008F085C080917A0390919C
:102580007B038C3D53E0950779F583E08A838AE2EB
:1025900089834FB7F894DE01139620E03EE051E2C4
:1025A000E32FF0E050935700E49120FF03C0E29541
:1025B000EF703F5FEF708E2F90E0EA3010F0C7961B
:1025C00001C0C0968D939D932F5F243149F74FBF73
:1025D0008091E800877F8093E8006AE270E0CE0196
:1025E00001960E943B1116C060917C0370917D039F
:1025F000AE014F5F5F4F0E94FD0FBC01892B09F4B4
:1026000041C09091E800977F9093E80089819A817A
:102610000E9499118091E8008B778093E80032C086
:10262000803881F58091E800877F8093E800809171
:1026300073038093F1008091E8008E7772CF81114F
:1026400021C080917A0390917B0399270297D4F45B
:102650008091E800877F8093E80080917A038093DF
:1026600073030E949E1080917303811106C08091B4
:10267000E30087FD02C081E001C084E0809377031E
:102680000E94570E8091E80083FF0AC08091E80005
:10269000877F8093E8008091EB0080628093EB005D
:1026A000AA960FB6F894DEBF0FBECDBFDF91CF91D3
:1026B0001F9108950E94C8130E94D013E0EEF0E02D
:1026C000808181608083E8EDF0E080818F77808376
:1026D00019BCA7EDB0E08C918E7F8C9380818F7EAA
:1026E00080831092760308950F931F93CF93DF9307
:1026F0000E94C8130E94D013C8EDD0E088818F7764
:10270000888388818068888388818F7D888319BCCD
:102710001092770310927303109275031092740352
:1027200000EE10E0F80180818B7F808388818160DA
:10273000888342E060E080E00E946910E1EEF0E012
:1027400080818E7F8083E2EEF0E0808181608083F3
:10275000808188608083F80180818E7F808388817A
:1027600080618883DF91CF911F910F910895E8EDEB
:10277000F0E080818F7E8083E7EDF0E080818160F2
:10278000808384E082BF81E0809376030C9474138D
:10279000E8EDF0E080818E7F80831092E200089562
:1027A0001092DA001092E10008951F920F920FB676
:1027B0000F9211242F933F934F935F936F937F93C7
:1027C0008F939F93AF93BF93EF93FF938091E1001B
:1027D00082FF0BC08091E20082FF07C08091E10080
:1027E0008B7F8093E1000E94EB148091DA0080FFE0
:1027F0001FC08091D80080FF1BC08091DA008E7FBF
:102800008093DA008091D90080FF0DC080E189BDFE
:1028100082E189BD09B400FEFDCF81E0809377039A
:102820000E944A0E05C019BC109277030E94530EF5
:102830008091E10080FF19C08091E20080FF15C007
:102840008091E2008E7F8093E2008091E2008061BF
:102850008093E2008091D80080628093D80019BCF8
:1028600085E0809377030E94250F8091E10084FF2B
:1028700030C08091E20084FF2CC080E189BD82E1FC
:1028800089BD09B400FEFDCF8091D8008F7D809373
:10289000D8008091E1008F7E8093E1008091E2007A
:1028A0008F7E8093E2008091E20081608093E2005D
:1028B00080917303882311F084E007C08091E300C6
:1028C00087FD02C081E001C083E0809377030E940E
:1028D0003A0F8091E10083FF29C08091E20083FFDD
:1028E00025C08091E100877F8093E10082E08093A2
:1028F0007703109273038091E1008E7F8093E10053
:102900008091E2008E7F8093E2008091E2008061FE
:102910008093E20042E060E080E00E9469108091D4
:10292000F00088608093F0000E94560EFF91EF91B6
:10293000BF91AF919F918F917F916F915F914F91D7
:102940003F912F910F900FBE0F901F9018951F92DF
:102950000F920FB60F9211242F933F934F935F93D3
:102960006F937F938F939F93AF93BF93CF93DF9397
:10297000EF93FF93C091E900CF708091EC00D82FC6
:10298000D17080FDD0E81092E9008091F000877F3F
:102990008093F00078940E94FA111092E9008091DF
:1029A000F00088608093F000CD2BCF70C093E900D9
:1029B000FF91EF91DF91CF91BF91AF919F918F9157
:1029C0007F916F915F914F913F912F910F900FBE2B
:1029D0000F901F901895089590938502809384021C
:1029E0000895E0918402F0918502309721F00190E2
:1029F000F081E02D099480E00895EF92FF920F930B
:102A00001F93CF93DF93E0918402F091850230977A
:102A1000B1F18C010280F381E02D09958091620370
:102A200082FF2DC080FF04C083EE94E00E94E50584
:102A3000E80118E08DEDE82E84E0F82E8091620325
:102A400080FF0BC088811F928F93FF92EF920E94AC
:102A50007E060F900F900F900F901150219611113C
:102A6000EDCF8091620380FF0AC08BED94E0DF918F
:102A7000CF911F910F91FF90EF900C94E505DF919E
:102A8000CF911F910F91FF90EF900895E0918402F4
:102A9000F0918502309721F00480F581E02D0994B2
:102AA0000895CF93DF9320918202309183022817FB
:102AB000390709F19093830280938202E0918402A6
:102AC000F09185023097B9F0EC010680F781E02D96
:102AD00009958091620382FF0EC080FF0CC0DF93D6
:102AE000CF938DEC94E09F938F930E947E060F907E
:102AF0000F900F900F90DF91CF910895CF93DF93B8
:102B000020918002309181022817390709F19093B2
:102B1000810280938002E0918402F09185023097D7
:102B2000B9F0EC010084F185E02D099580916203F4
:102B300082FF0EC080FF0CC0DF93CF938DEB94E03B
:102B40009F938F930E947E060F900F900F900F908F
:102B5000DF91CF9108950C945B160E9457220E943A
:102B6000770A0C946D0BBF92CF92DF92EF92FF9297
:102B70000F931F93CF93DF9300D000D01F92CDB758
:102B8000DEB70E94920907E812E0F12C8F2D0E9417
:102B90006C0AB82EF801C080C82639F4F3940F5F90
:102BA0001F4FF0E1FF12F2CF30C08091620381FD30
:102BB0000E947016D12CEE24E3948C2D8E21F9F016
:102BC000D982FA8291E08B2D8E2109F490E09B83CB
:102BD0000E9460228160782F9D838C8349815A8175
:102BE0006B818D810E94A61649815A816B817C81FF
:102BF0008D810E94D821F80180818E258083D39415
:102C0000EE0CF8E0DF12D9CFC9CF8FEF89838A832A
:102C10001B820E9460228160782F9D838C83498172
:102C20005A816B818D810E94A6160E94D7210E9435
:102C300003250E94D4060E94F11490918602891700
:102C400041F10E94F114809386029091620392FFF9
:102C50000EC090FF0CC01F928F938EEE94E09F9356
:102C60008F930E947E060F900F900F900F9080918F
:102C700086020F900F900F900F900F90DF91CF91E1
:102C80001F910F91FF90EF90DF90CF90BF900C9429
:102C9000E9210F900F900F900F900F90DF91CF913F
:102CA0001F910F91FF90EF90DF90CF90BF9008950C
:102CB0000C94720A08950895CF93C62F0E946C0A4F
:102CC00021E030E002C0220F331FCA95E2F790E006
:102CD0002823392381E0232B09F480E0CF91089544
:102CE000EF92FF920F931F93CF93DF9387E095E0CE
:102CF0000E94E505C0E0D0E083E3E82E81E0F82EF5
:102D000009EF14E08C2F0E946C0A0E94C521FF92EB
:102D1000EF921F928F93DF93CF931F930F930E9495
:102D20007E0621968DB79EB708960FB6F8949EBF83
:102D30000FBE8DBFC031D10529F7DF91CF911F9113
:102D40000F91FF90EF90089508950895CF93DF932A
:102D5000CDB7DEB72B970FB6F894DEBF0FBECDBF51
:102D6000942F4F83252F588769877A878B874A85C9
:102D70005B85452B31F02F3F31F481E09F3F19F403
:102D800003C081E001C080E080FD07C04F8158850D
:102D900069857A858B850E94D821DE01119686E0AF
:102DA000FD0111928A95E9F785E0FE0137960190C1
:102DB0000D928A95E1F749815A816B817C818D81E1
:102DC0009E810E943A1E2B960FB6F894DEBF0FBE6E
:102DD000CDBFDF91CF910895CF93882309F4A9C087
:102DE000C82F8238A1F40E94F11481FDA2C089E3AA
:102DF0000E9422210E949A212FEF81EE94E021501F
:102E000080409040E1F700C0000089E315C083389E
:102E1000C1F40E94F11480FD8CC083E50E94222140
:102E20000E949A212FEF81EE94E021508040904043
:102E3000E1F700C0000083E50E943F21CF910C9490
:102E40009A218438A1F40E94F11482FD72C087E4B3
:102E50000E9422210E949A212FEF81EE94E02150BE
:102E600080409040E1F700C0000087E4E5CF8CEFA0
:102E70008C0F813A20F080E58C0F8E3248F48C2F35
:102E80000E942D28811155C08C2F0E942221D6CF5F
:102E900080E28C0F883048F4C77081E001C0880F51
:102EA000CA95EAF70E946021C9CF8BE58C0F833069
:102EB00078F4C53A29F0C63A31F083E890E005C0CD
:102EC00081E890E002C082E890E0CF910C94511527
:102ED00088E58C0F853168F5C83A89F0C93A91F0D8
:102EE000CA3A99F0CB3AA1F0CC3AA9F0CD3AB1F078
:102EF000CE3AB9F0CF3AC1F080E090E017C082EE50
:102F000090E014C089EE90E011C08AEE90E00EC00F
:102F100085EB90E00BC086EB90E008C083EB90E07F
:102F200005C084EB90E002C087EB90E0CF910C9459
:102F30007E15CF910895882309F46AC08238A1F4E0
:102F40000E94F11481FF64C089E30E9422210E9443
:102F50009A212FEF81EE94E0215080409040E1F7DC
:102F600000C0000089E315C08338B9F40E94F11451
:102F700080FF4EC083E50E9422210E949A212FEFFC
:102F800081EE94E0215080409040E1F700C00000C5
:102F900083E50E943F210C949A218438A1F40E9479
:102FA000F11482FF35C087E40E9422210E949A21F9
:102FB0002FEF81EE94E0215080409040E1F700C077
:102FC000000087E4E6CF9CEF980F913A10F390E56C
:102FD000980F9E32F0F290E2980F983050F487707C
:102FE00091E001C0990F8A95EAF7892F0E94662126
:102FF000D2CF9BE5980F933020F480E090E00C94C2
:103000005115885A853120F480E090E00C947E15AB
:103010000895882321F00E9460210C949A2108953C
:10302000882321F00E9466210C949A2108950E9421
:1030300080210E944F210E949A210E94A8250E946F
:10304000762480E090E00E94511580E090E00C949E
:103050007E150E9470210C941718CF92DF92EF9288
:10306000FF920F931F93CF93DF9300D000D01F9256
:10307000CDB7DEB76C010E94EB21811101C385E061
:10308000F601DE01119601900D928A95E1F7F601A5
:1030900040815181238134812115310531F05F3F19
:1030A00031F481E04F3F19F403C081E001C080E0BA
:1030B00080FDE6C2F601F280E580E2948FE0E8222E
:1030C00049835A83FB82722F3D832C836F2D8D8120
:1030D0000E949E208C010E949D200E948D1FE12F46
:1030E000E295EF708E2F90E0FC01E05AFF4F0C94B8
:1030F000C52A812F807F1F70882311F01295107FC1
:10310000FF2049F0112309F452C2812F0E9473213C
:103110000E949A214CC2802F0E949B17112309F410
:10312000AFC2812F0E9479210F900F900F900F90C6
:103130000F90DF91CF911F910F91FF90EF90DF9053
:10314000CF900C949A21812F807F1F70803211F0D4
:103150001295107F002319F0013009F12BC0FF20D8
:10316000A9F0EE2059F1F1E0812FEF1228C00F9065
:103170000F900F900F900F90DF91CF911F910F91B3
:10318000FF90EF90DF90CF900C948321EE2021F000
:1031900021E0E21609F474C20E9486212DC0FF20AE
:1031A000E9F085E08E1508F46BC20E945D21812351
:1031B00029F022C0FF20F1F0E11015C0812F0F90FF
:1031C0000F900F900F900F90DF91CF911F910F9163
:1031D000FF90EF90DF90CF900C94091894E09E152B
:1031E00008F44EC209C0F601858180FFE0C18F70EE
:1031F0008583E4CFE110EEC1812F61C1812F8695D7
:103200008695837019F08130B9F03AC2FF2019F029
:10321000C801937002C080E090E00F900F900F9073
:103220000F900F90DF91CF911F910F91FF90EF9032
:10323000DF90CF900C945115FF2019F0C8019370C6
:1032400002C080E090E00F900F900F900F900F90D1
:10325000DF91CF911F910F91FF90EF90DF90CF9072
:103260000C947E15802FFF2019F00E94892302C044
:103270000E94F1230F900F900F900F900F90DF910D
:10328000CF911F910F91FF90EF90DF90CF900C9412
:103290007624812F837009F070C0F110F1C1202FC6
:1032A000229526952770220F220F602F6F70862F90
:1032B00090E0A0E0B0E06C017D01022E04C0CC0CD7
:1032C000DD1CEE1CFF1C0A94D2F704FF12C08FE035
:1032D00090E0A0E0B0E004C0880F991FAA1FBB1FB8
:1032E0002A95D2F7BC01CD01609570958095909597
:1032F00003C060E070E0CB01169516951370123094
:10330000B1F040F56C297D298E299F29113031F1CA
:103310000F900F900F900F900F90DF91CF911F9112
:103320000F91FF90EF90DF90CF900C94B21F6C291B
:103330007D298E299F290F900F900F900F900F904D
:10334000DF91CF911F910F91FF90EF90DF90CF9081
:103350000C94CC1F0E94B21FC701B6010F900F90B2
:103360000F900F900F90DF91CF911F910F91FF90D1
:10337000EF90DF90CF900C94981FFF2019F0812FD1
:10338000817001C08695882309F47AC1202F229587
:1033900026952770220F220F602F6F70862F90E0E6
:1033A000A0E0B0E06C017D01022E04C0CC0CDD1C5D
:1033B000EE1CFF1C0A94D2F704FF12C08FE090E0CD
:1033C000A0E0B0E004C0880F991FAA1FBB1F2A9578
:1033D000D2F7BC01CD01609570958095909503C0A2
:1033E00060E070E0CB011695169513701230B1F0C5
:1033F00040F56C297D298E299F29113031F10F90DC
:103400000F900F900F900F90DF91CF911F910F9120
:10341000FF90EF90DF90CF900C9479206C297D295C
:103420008E299F290F900F900F900F900F90DF9192
:10343000CF911F910F91FF90EF90DF90CF900C9460
:103440008B200E947920C701B6010F900F900F903A
:103450000F900F90DF91CF911F910F91FF90EF9000
:10346000DF90CF900C946720003FC1F128F480E4F6
:10347000800F803250F096C0023F09F45EC008F41D
:1034800049C0033F09F46CC08DC0F02FF071EF2EDE
:10349000812F8F71FF2051F00E940020802FEE209D
:1034A00019F08295807F8BCE8F7089CE0E9421206B
:1034B000802FEE2019F08295807F01C08F700F90D1
:1034C0000F900F900F900F90DF91CF911F910F9160
:1034D000FF90EF90DF90CF900C941018FF20A9F090
:1034E00024E02E1508F4CCC0812F8F710F900F901F
:1034F0000F900F900F90DF91CF911F910F91FF9040
:10350000EF90DF90CF900C94462085E08E1508F464
:10351000B7C0EACFFF2099F0812F8F710F900F90E5
:103520000F900F900F90DF91CF911F910F91FF900F
:10353000EF90DF90CF900C940020FF2069F3812F53
:103540008F710F900F900F900F900F90DF91CF9190
:103550001F910F91FF90EF90DF90CF900C9421205E
:10356000FF2089F0812F8F710F900F900F900F9097
:103570000F90DF91CF911F910F91FF90EF90DF900F
:10358000CF900C94EB1F0F900F900F900F900F9017
:10359000DF91CF911F910F91FF90EF90DF90CF902F
:1035A0000C94E61FFF2099F0EE2009F4B5CF802F90
:1035B0000F900F900F900F900F90DF91CF911F9170
:1035C0000F91FF90EF90DF90CF900C94EC16EE20CF
:1035D00009F4B5CF802F0F900F900F900F900F90A0
:1035E000DF91CF911F910F91FF90EF90DF90CF90DF
:1035F0000C949B17412F4F70602FC6010E9403232C
:103600000F900F900F900F900F90DF91CF911F911F
:103610000F91FF90EF90DF90CF900C94E81E011176
:103620002FC0FF2069F10E9429189FEFE0E7F2E028
:103630009150E040F040E1F700C000000F900F9083
:103640000F900F900F90DF91CF911F910F91FF90EE
:10365000EF90DF90CF900C94AC22412F4F70602FF1
:10366000C6010F900F900F900F900F90DF91CF91A8
:103670001F910F91FF90EF90DF90CF900C94062355
:103680000F900F900F900F900F90DF91CF911F919F
:103690000F91FF90EF90DF90CF9008951F93CF93FD
:1036A000DF9300D000D01F92CDB7DEB7942F4983AF
:1036B000252F5A836B837C838D834C815D81452BC1
:1036C00031F02F3F31F481E09F3F19F403C081E0D6
:1036D00001C080E0182F117080FD31C049815A81EE
:1036E0006B817C818D810E949E20292F22952F70D5
:1036F0002C3030F42A30A0F42250223030F022C096
:103700002C30C9F02F30B9F01DC0853A28F4843030
:10371000C0F4823028F415C090E2980F983088F0F9
:10372000883E30F4803E68F48450813A58F409C0F1
:10373000803F41F406C093FB112710F903C010E04D
:1037400001C011E0812F0F900F900F900F900F90FC
:10375000DF91CF911F910895CF93DF9300D000D0D8
:103760001F92CDB7DEB70F900F900F900F900F9074
:10377000DF91CF910895CF93DF9300D000D000D098
:10378000CDB7DEB726960FB6F894DEBF0FBECDBF1D
:10379000DF91CF9108951F93CF93DF93C09197024C
:1037A00016E080919802C81799F0D0E01C9FF001B4
:1037B0001D9FF00D1124E756FD4F4081518162811C
:1037C0007381848195810E94BB1B2196C770E9CFCC
:1037D000DF91CF911F9108954091C9025091CA0283
:1037E0006091CB027091CC028091CD029091CE027B
:1037F0000C94BB1B0F931F93CF93DF938091CE024A
:1038000082958F7009F05DC08091CB02882309F406
:1038100058C080919702109198026091C9027091EE
:10382000CA02C091CC02D091CD0291E06F3F09F065
:1038300090E0292F06E0811709F443C0209721F07A
:103840007F3F21F030E003C031E001C0322F90E033
:1038500030FD34C0089FF001099FF00D1124DF01F5
:10386000A756BD4F11963C911197371327C03C9135
:10387000361324C012963C91129731111FC0139633
:103880004D915C9114974C1B5D0B483C5105B0F475
:103890008091CE028F7080618093CE02E256FD4F00
:1038A00080818F708061808389EC92E00E942D1866
:1038B000DF91CF911F910F910C94CB1B01968770D4
:1038C000BACFDF91CF911F910F9108959F92AF9240
:1038D000BF92CF92DF92EF92FF920F931F93CF93FD
:1038E000DF93CDB7DEB761970FB6F894DEBF0FBE9A
:1038F000CDBF8C0185E0F801DE011D9601900D928F
:103900008A95E1F7F80140815181F280C380D4802B
:103910009091C9026091CA022091CC023091CD02EF
:103920002115310531F06F3F31F481E09F3F19F4EB
:1039300003C081E001C080E0F82FF1709F2E80FD70
:1039400052C189ECA82E82E0B82EE090CB02F6019D
:10395000E21BF30BEE2009F4E8C08091CE02E83CB4
:10396000F10508F0A4C0282F207F09F053C056139A
:1039700013C0491311C0EF2CF1100EC08F7080617D
:103980008093CE020E94EC1BC5010E942D188091ED
:10399000CE02F80185835BC1C114D10431F05F3FD1
:1039A00031F481E04F3F19F403C081E001C080E0B1
:1039B00080FD03C081E08F2502C080E090E0F82FF9
:1039C000F170EF2E80FF1CC0809197022091980229
:1039D00036E0821709F418C190E0389FF001399F52
:1039E000F00D1124E756FD4F6181561306C060812A
:1039F000461303C06281F61203C001968770E9CFB7
:103A0000EF2CFF2009F423C18091CE0281608093C6
:103A1000CE0262C0561306C0491304C0F11002C0A2
:103A2000F801A7C04D875E87FF867C2DD98AC88A9A
:103A30006F2D89890E944E1B882399F1FF2089F1FF
:103A40002091CE02822F82958F7090E0029774F0C1
:103A50008091C9029091CA0298878F831986DB866C
:103A6000CA862C87CE0107960E942D1886E0F801A1
:103A7000A9ECB2E001900D928A95E1F70E94FA1B41
:103A80000E94EC1B11C0561749F14D875E87FF86D7
:103A90007C2DD98AC88A6F2D89890E944E1B81117D
:103AA0002CC0C8010E942D18EE24E394D0C0282F0A
:103AB000207F49F77C2DD98AC88A6F2D89890E9479
:103AC000AC1B89EC92E00E942D1886E0F501119262
:103AD0008A95E9F70E94EC1BE12CB9C04913D5CFB8
:103AE000F110D3CFF8018583C8010E942D1886E01C
:103AF000F50111928A95E9F7AAC0FF2091F2209171
:103B0000CE02822F82958F7090E002970CF4AECF98
:103B10008091C9029091CA029A8389831B82DD82B7
:103B2000CC822E83CE0101969FCFE83CF10508F0B0
:103B30004BC0EF2CFF2009F4B4CF561330C049130B
:103B40002EC02091CE0220FD21C0822F82958F7041
:103B5000482F50E041155105C9F0F80125834F3039
:103B6000510541F08F5F982F9295907F822F8F7033
:103B7000892B8583C8010E942D1886E0F801A9ECE5
:103B8000B2E001900D928A95E1F72AC086E0F80133
:103B9000A9ECB2E001900D928A95E1F758C04D87EB
:103BA0005E87FF867C2DD98AC88A6F2D89890E94FD
:103BB0004E1B81115BCF8091CE0281608093CE023B
:103BC000C8010E942D1843C07C2DD98AC88A6F2D48
:103BD00089890E94AC1B86E0F50111928A95E9F76C
:103BE0000E94EC1B34C0FF2009F45BCF4D875E8739
:103BF000FF867C2DD98AC88A6F2D89890E944E1B29
:103C0000882309F44ECF32CF7C2DD98AC88A6F2DF4
:103C100089890E949E20292F22952F70223028F416
:103C20009F7039F0811105C00BC0243028F49F70BB
:103C300049F4805E883020F0C8010E942D189E2C27
:103C4000E92C05C0F8019581907F99F7F9CF8E2D69
:103C500061960FB6F894DEBF0FBECDBFDF91CF9156
:103C60001F910F91FF90EF90DF90CF90BF90AF909A
:103C70009F9008951F93CF93DF93CDB7DEB72C9716
:103C80000FB6F894DEBF0FBECDBF4F83588769874C
:103C90007A878B879C87CE0107960E94661C8823B3
:103CA000D1F09F8188852A853B85232B31F08F3F7A
:103CB00031F481E09F3F19F403C081E001C080E04E
:103CC00080FD47C04F81588569857A858B859C85A5
:103CD0000E94BB1B3EC086E0FE013796DE011196B6
:103CE00001900D928A95E1F7FF81E8856A857B85D1
:103CF0006115710531F0EF3F31F481E0FF3F19F4B8
:103D000003C081E001C080E080FD23C020919802C3
:103D100030E0C9010196877099274091970250E0E1
:103D200084179507F1F1F983EA837D836C8396E02C
:103D3000929FD001939FB00D1124A756BD4FFE0155
:103D4000319601900D929A95E1F7809398020E9426
:103D5000CB1B16E08091970290919802891771F120
:103D6000189FC001112487569D4F0E94661C88230E
:103D700029F1E09197021E9FF0011124E756FD4FB3
:103D80004081518162817381848195810E94BB1B36
:103D90008091970290E0019687709927809397020F
:103DA000D9CF0E9429181092980210929702E9EC3C
:103DB000F2E086E0DF011D928A95E9F72C960FB6B6
:103DC000F894DEBF0FBECDBFDF91CF911F91089554
:103DD000DF92EF92FF920F931F93CF93DF93FC013B
:103DE000892B09F488C0E12CF12CDD24D394EF0158
:103DF00021968491853709F460C058F4843708F01F
:103E00004EC0843008F068C08130D1F0823071F14A
:103E100072C0883709F45BC050F4863709F453C088
:103E2000873709F068C08E2D0E946D2152C09CE733
:103E3000980F903708F05FC08F770E949B174EC095
:103E40008F010E5F1F4FFE01849190E2980F983012
:103E500050F48770FD2D01C0FF0F8A95EAF78F2F70
:103E60000E94732115C00E94EC1614C08F010E5FD2
:103E70001F4FFE01849190E2980F983068F487708C
:103E8000FD2D01C0FF0F8A95EAF78F2F0E9479213F
:103E90000E949A21E80122C00E949B17FBCFCF010C
:103EA0000296FE01C491CC2361F0EFE9FFE0319767
:103EB000F1F700C00000C150F6CFCF010296FE011D
:103EC000F490EC010BC00E945D21E82E07C00E9417
:103ED00070210E949A2102C00E94EC168F2D882327
:103EE00041F0EFE9FFE03197F1F700C000008150A9
:103EF000F6CFFE017CCFDF91CF911F910F91FF9004
:103F0000EF90DF90089560934F0370935003809378
:103F10005103909352030C94E82108956093530346
:103F20007093540380935503909356030C94E721A8
:103F30000F931F9300915303109154032091550345
:103F400030915603602B712B822B932B609353037C
:103F50007093540380935503909356031F910F91D0
:103F60000C94E7210F931F93009153031091540376
:103F700020915503309156036023712382239323AC
:103F800060935303709354038093550390935603A7
:103F90001F910F910C94E7210F931F9300915303EE
:103FA00010915403209155033091560360277127D7
:103FB0008227932760935303709354038093550390
:103FC000909356031F910F910C94E72160E070E0ED
:103FD000CB010C94831F0F931F9341E050E060E0EE
:103FE00070E08A019B0104C0000F111F221F331FC4
:103FF0008A95D2F7C901B8011F910F910C94831FC4
:104000000F931F9341E050E060E070E004C0440F64
:10401000551F661F771F8A95D2F780914F039091A5
:104020005003A0915103B09152038A019B01082BC8
:10403000192B2A2B3B2BC901B8011F910F910C940E
:10404000831F0F931F9341E050E060E070E004C0D5
:10405000440F551F661F771F8A95D2F740955095DC
:104060006095709580914F0390915003A0915103FA
:10407000B09152038A019B01082319232A233B2371
:10408000C901B8011F910F910C94831F0F931F93C7
:1040900041E050E060E070E004C0440F551F661F2F
:1040A000771F8A95D2F780914F0390915003A0918A
:1040B0005103B09152038A019B01082719272A272F
:1040C0003B27C901B8011F910F910C94831F0F93D7
:1040D0001F9300914F031091500320915103309191
:1040E0005203602B712B822B932B1F910F910C94F9
:1040F000831F0F931F9300914F0310915003209142
:1041000051033091520360237123822393231F9123
:104110000F910C94831F0F931F9300914F031091E5
:104120005003209151033091520360277127822759
:1041300093271F910F910C94831F08958F929F9244
:10414000AF92BF92DF92EF92FF920F931F93CF93A4
:10415000DF9300D000D01F92CDB7DEB76B837C8396
:104160008D838A018C819D81892B31F01F3F31F431
:1041700081E04F3F19F403C081E001C080E080FF7F
:1041800003C080E090E04DC08B818823D1F1809006
:104190004F0390905003A0905103B0905203809130
:1041A000530390915403A0915503B0915603882A6C
:1041B000992AAA2ABB2A8FE1E82EF12CD501C40145
:1041C0000E2C04C0B695A795979587950A94D2F7BB
:1041D00080FD06C081E0E81AF10880F7D12C07C005
:1041E000DE2CB8018E2D0E94DB22019799F388E026
:1041F000189FF0011124E153FD4FE00FF11DD08213
:1042000009C088E0189FF0011124E153FD4FE00F31
:10421000F11DD08009831A8369817A818D2D0E94D6
:10422000DB220F900F900F900F900F90DF91CF91A6
:104230001F910F91FF90EF90DF90BF90AF909F90F4
:104240008F9008952091250130912601F901329631
:104250009FEF40E05191851789F09F3F19F451116C
:1042600001C0942F4F5F4630A9F79F3F39F0F90105
:10427000E90FF11D97FDFA95828308950895E09165
:104280002501F09126019F012A5F3F4F92818913FA
:1042900001C012823196E217F307C1F7089581E059
:1042A00090E0E0912501F0912601E80FF91F1082BE
:1042B000019688309105A9F70895809161030895CA
:1042C00090916103892B809361030895809590916B
:1042D00061038923809361030895809361030895A6
:1042E00010926103089590916003892B809360037D
:1042F00008958095909160038923809360030895C9
:104300001092600308958093570308951092570305
:1043100008958091250190912601FC0131969C0120
:10432000285F3F4F80E0919191118F5FE217F30773
:10433000D1F70895E0912501F09126018091610364
:104340008083E0912501F0912601908180916003A6
:10435000892B808380915703882361F0E0912501A8
:10436000F09126019081892B80830E9489218111FF
:104370001092570380912501909126010C94FD1411
:10438000909353018093520108958295982F9373CF
:1043900044E0949F900111248C7C86958695282B6F
:1043A000822F8575880F2A7A2695822B0895089585
:1043B000CF93DF9300D000D01F92CDB7DEB70F9020
:1043C0000F900F900F900F90DF91CF910895089567
:1043D00008950C94581680E00895809177038430F6
:1043E00021F11092630320E488E190E00FB6F89485
:1043F000A895809360000FBE2093600083B7817FF3
:10440000846083BF83B7816083BF7894889583B7C6
:104410008E7F83BF0FB6F894A89580916000886165
:1044200080936000109260000FBE0895CF930E94A9
:10443000A4160E9492090E94A516C0E08C2F0E942B
:104440006C0A811104C0CF5FC031C1F701C081E0A7
:10445000CF9108950E945A160C9429181F920F921A
:104460000FB60F9211248F939F93AF93BF938091B8
:104470006303811113C08091640390916503A0913F
:104480006603B09167034196A11DB11D809364033B
:1044900090936503A0936603B0936703BF91AF91B8
:1044A0009F918F910F900FBE0F901F90189582E0F3
:1044B00084BD93E095BD9AEF97BD80936E000895FB
:1044C0002FB7F8948091640390916503A0916603DF
:1044D000B09167032FBF08952FB7F89460916403DC
:1044E0007091650380916603909167032FBF0895D3
:1044F0009C014FB7F8948091640390916503A0915B
:104500006603B09167034FBF821B930B08951F9200
:104510000F920FB60F9211248F939F93AF93BF9377
:104520008091640390916503A0916603B091670345
:104530000196A11DB11D8093640390936503A09320
:104540006603B0936703BF91AF919F918F910F90D6
:104550000FBE0F901F9018950E945A13F89487E78A
:1045600097E7909301088093000887E090EBDC01C7
:104570008093800390938103A0938203B09383037D
:104580009CE088E10FB6F894A895809360000FBE78
:1045900090936000FFCFE82FF0E088E0989FE00D57
:1045A000F11D1124E052FF4F8491982F92959F7036
:1045B0008F7097700895CF93C82FCB010E94CB22A4
:1045C00040E1949F90011124282B203831051CF0E4
:1045D00080E090E016C09770E92FF0E098E0C99F66
:1045E000E00DF11D112494E0EE0FFF1F9A95E1F705
:1045F0008F70E80FF11DEE0FFF1FE050F849859115
:104600009491CF91089580E090E00895089580916D
:104610006A0380FF0BC060912A0185E0689FB001AA
:10462000112475956795759567952BC081FF09C015
:1046300060912A0185E0689FB00111247595679506
:1046400020C082FF07C060912A0185E0689FB00109
:10465000112417C090916B039923D1F06091290127
:10466000961788F720912A0185E0289F9001112450
:10467000929FA001939F500D112470E0CA010E94E7
:10468000B12A6038710540F46115710519F406C04E
:1046900065E070E0862F08958FE7089581E0089522
:1046A00080916A0380FF08C06091280170E07595D1
:1046B00067957595679521C081FF06C060912801B7
:1046C00070E07595679519C082FF04C0609128015C
:1046D00070E010C090916B03992399F060912701CD
:1046E0009617A0F780912801899FC001112470E0DE
:1046F0000E94B12A6038710540F46115710519F402
:1047000006C061E070E0862F08958FE7089581E08C
:104710000895803F21F40E940723819504C0813FC2
:1047200029F40E94072380936E030895823F21F4A9
:104730000E940723819504C0833F29F40E94072328
:1047400080936D030895893F19F40E94502305C09A
:104750008A3F31F40E945023819580936F0308951E
:104760008B3F21F40E945023819504C08C3F29F493
:104770000E945023809370030895843F21F4809118
:104780006C03816017C0853F21F480916C038260C7
:1047900011C0863F21F480916C0384600BC0873F79
:1047A00021F480916C03886005C0883F31F48091CA
:1047B0006C03806180936C0308958D3F21F4809198
:1047C0006A0381600BC08E3F21F480916A0382608E
:1047D00005C08F3F29F480916A03846080936A0347
:1047E0000895803F39F480916E0387FF6CC010926A
:1047F0006E0369C0813F29F480916E031816BCF3E3
:1048000062C090916D03823F29F497FF5CC01092C3
:104810006D0359C0833F19F41916CCF354C0893F76
:1048200041F480916F0318160CF04DC010926F0385
:104830004AC08A3F29F480916F0387FF44C0F6CFB6
:104840008B3F39F48091700387FF3DC01092700355
:104850003AC08C3F29F4809170031816BCF333C022
:10486000843F21F480916C038E7F17C0853F21F433
:1048700080916C038D7F11C0863F21F480916C0381
:104880008B7F0BC0873F21F480916C03877F05C02D
:10489000883F31F480916C038F7E80936C0313C04A
:1048A0008D3F21F480916A038E7F0BC08E3F21F4EF
:1048B00080916A038D7F05C08F3F29F480916A0340
:1048C0008B7F80936A0380916D0381110EC080916C
:1048D0006E0381110AC080916F03811106C080911F
:1048E0007003811102C010926B03089580916203DE
:1048F00083FF7EC08CE395E00E94E50580916C0308
:104900001F928F9387E395E09F938F930E947E067B
:1049100085E395E00E94E50580916D03282F082E20
:10492000000C330B3F938F9382E395E09F938F931B
:104930000E947E0680E395E00E94E50580916E036B
:10494000282F082E000C330B3F938F938DE295E0B8
:104950009F938F930E947E068BE295E00E94E5056F
:1049600080916F03282F082E000C330B3F938F93F9
:1049700088E295E09F938F930E947E0686E295E001
:104980000E94E50580917003282F082E000C330B40
:104990003F938F9383E295E09F938F930E947E06CF
:1049A00080E295E00E94E50580916B031F928F9352
:1049B0008DE195E09F938F930E947E068BE195E0B9
:1049C0000E94E50580916A031F928F9388E195E02C
:1049D0009F938F930E947E0685E195E00E94E505F6
:1049E0008DB79EB74C960FB6F8949EBF0FBE8DBF85
:1049F0008CE693E00E9446150E9460229093690322
:104A00008093680308951F93CF93DF938091680389
:104A1000909169030E947822AC0190916B039923D5
:104A200021F020912B0130E006C020912C018AE07A
:104A3000289F900111244217530708F485C08091E4
:104A40006D03C0916E03D0916F03109170038111BB
:104A500007C0C11175C0D11173C0111171C074C0EC
:104A60009F3F19F09F5F90936B03181624F40E94E8
:104A7000072380936D0380916D0387FF05C00E941B
:104A80000723819580936D031C1624F40E9407234D
:104A900080936E0380916E0387FF05C00E940723F9
:104AA000819580936E0360916D03662331F1C0910F
:104AB0006E03CC2311F1062E000C770B880B990B9B
:104AC0000E94B82923E333E343E35FE30E941C2AF7
:104AD0000E94802960936D036C2FCC0F770B880B9D
:104AE000990B0E94B82923E333E343E35FE30E9479
:104AF0001C2A0E94802960936E031D1624F40E94D4
:104B0000502380936F0380916F0387FF05C00E943D
:104B10005023819580936F03111624F40E94502333
:104B2000809370038091700387FF05C00E9450231B
:104B3000819580937003DF91CF911F910C9476241F
:104B40009F3F09F08FCFA0CFDF91CF911F910895A4
:104B5000ECE6F3E085E0DF011D928A95E9F710921B
:104B60006B0310926A0308958FE597E00E94E505B4
:104B70001F9281E08F931F9285E08F9381E197E0F0
:104B80009F938F930E947E060F900F900F900F902F
:104B90000F900F9008958330E9F128F4813061F08F
:104BA000823009F10895853009F462C008F449C0E3
:104BB000863009F474C0089580912C01262F30E0CE
:104BC000280F311D2F3F310524F4680F60932C010D
:104BD00003C08FEF80932C0180912C011F928F9343
:104BE0008AE496E072C080912B01262F30E0280FD6
:104BF000311D2F3F310524F4680F60932B0103C052
:104C00008FEF80932B0180912B011F928F9388E36C
:104C100096E05BC080912A01262F30E0280F311DDD
:104C20002F3F310524F4680F60932A0103C08FEFF2
:104C300080932A0180912A011F928F9385E296E04A
:104C400044C080912901262F30E0280F311D2F3FCD
:104C5000310524F4680F6093290103C08FEF80931E
:104C60002901809129011F928F9380E196E02DC048
:104C700080912801262F30E0280F311D2F3F31056C
:104C800024F4680F6093280103C08FEF80932801FC
:104C9000809128011F928F9387EF95E016C0809135
:104CA0002701262F30E0280F311D2F3F310524F436
:104CB000680F6093270103C08FEF809327018091D5
:104CC00027011F928F938CED95E09F938F930E9405
:104CD0007E060F900F900F900F900895833081F112
:104CE00028F4813059F08230D1F00895853009F4EC
:104CF00049C0B8F1863009F456C0089580912C015E
:104D0000681720F4861B80932C0102C010922C019E
:104D100080912C011F928F938DEC95E054C080916F
:104D20002B01681720F4861B80932B0102C0109280
:104D30002B0180912B011F928F938BEB95E043C049
:104D400080912A01681720F4861B80932A0102C0F3
:104D500010922A0180912A011F928F9388EA95E090
:104D600032C080912901681720F4861B80932901A5
:104D700002C010922901809129011F928F9383E92B
:104D800095E021C080912801681720F4861B80934C
:104D9000280102C010922801809128011F928F9350
:104DA0008AE795E010C080912701681720F4861BE0
:104DB0008093270102C010922701809127011F9242
:104DC0008F938FE595E09F938F930E947E060F90BF
:104DD0000F900F900F900895CF93C82F1F928F932D
:104DE00084E698E09F938F930E947E0681E090E096
:104DF000A0E0B0E0BC01CD0104C0660F771F881FA2
:104E0000991FCA95D2F70E948E1F0F900F900F9096
:104E10000F90CF910C942918CF93873288F58E315B
:104E200008F00BC18E3009F487C0D8F4873009F43C
:104E300060C08B3009F44FC0863009F002C1809108
:104E40006203817F8E7F8093620389E698E00E94EF
:104E5000E5058AE19BE00E94E50581E0809372030D
:104E600046C0863109F4B0C020F4803109F47AC01C
:104E7000E8C0893109F491C08B3109F449C0E1C01F
:104E8000883349F150F4893209F4D5C0853309F4E7
:104E9000D2C0873209F0D5C0CEC0833409F4CBC06C
:104EA00028F48A3308F4CDC08953C8C0883409F087
:104EB000C8C00E94291889E09BE00E94E5052FEFF9
:104EC00083ED90E3215080409040E1F700C0000066
:104ED0000E94AC220CC080E998E041C080EF9AE0CB
:104EE0000E94E50580916203816080936203C1E0C6
:104EF000ADC080916203C82FC17080FFEFCF8CEFEF
:104F00009AE00E94E50580916203817F8E7F3FC019
:104F10009091620391FBCC27C0F981E0C827892FCB
:104F2000C0FB81F980936203CC2319F083EE9AE0F1
:104F300029C085ED9AE013C09091620392FBCC27C3
:104F4000C0F981E0C827892FC0FB82F980936203F2
:104F5000CC2319F086EC9AE015C086EB9AE00E940B
:104F6000E505C5CF9091620393FBCC27C0F981E0A2
:104F7000C827892FC0FB83F980936203CC2351F0AB
:104F80008AEA9AE00E94E50580916203816080933D
:104F900062035CC08DE99AE0E2CF8EE89AE00E945D
:104FA000E5058BE69AE00E94E50586E29AE00E941C
:104FB000E5058EEF99E00E94E50589EB99E00E94F6
:104FC000E5058EE899E0CBCF80E899E00E94E50501
:104FD0000E94F1141F928F9386E699E09F938F931E
:104FE0000E947E06809124011F928F938FE499E0A6
:104FF0009F938F930E947E0680917F021F928F93D2
:105000008CE399E09F938F930E947E060E946C220E
:105010009F938F937F936F9385E299E09F938F93F4
:105020000E947E068DB79EB742960FB6F8949EBF3B
:105030000FBE8DBF5CCF80E001C08D510E94EC2679
:1050400056CF83E299E00E94E505C0E08C2FCF9116
:10505000089580E008950C942928CF93C82F80915B
:105060007203813069F020F0823009F449C040C1F8
:1050700067E08FE00E945C16882309F43FC106C0F8
:1050800067E08FE00E945C16882361F08C2F0E94FD
:105090002B28811104C08C2F0E940C272FC081E087
:1050A00090E02CC08C2F0E942928811126C0C43189
:1050B000E1F070F4CB3081F0C031D1F40E94B4251E
:1050C0008CE598E00E94E50582E08093720315C0AC
:1050D000C93259F0C83361F489E698E00E94E505C9
:1050E00080E698E00E94E50508C01092720304C1B2
:1050F0008AE598E00E94E505FFC081E08170FEC06E
:10510000C43228F5CE3108F0C1C0CB30A1F1D0F4C3
:10511000C73009F0D3C08EE180932C0182E38093E5
:105120002B018AE080932A0184E18093290188E0A1
:105130008093280188E28093270180E097E00E9415
:10514000E505BFC0C33149F1C431C1F0B7C0CB34AC
:1051500009F4A9C028F4C93289F0C83361F0AEC09F
:10516000C13509F49EC0C23509F499C0CE3409F0A6
:10517000A5C06AE09EC00E94B425A3C080917103BF
:10518000882319F0109271039CC08DE097E00E9473
:10519000E50581E080937203B1C087EE96E00E943E
:1051A000E50585ED96E00E94E50580912C011F92B2
:1051B0008F9382ED96E09F938F930E947E0680ED01
:1051C00096E00E94E5058EEB96E00E94E505809151
:1051D0002B011F928F938BEB96E09F938F930E94EE
:1051E0007E0689EB96E00E94E5058AEA96E00E9439
:1051F000E50580912A011F928F9387EA96E09F939D
:105200008F930E947E0685EA96E00E94E50584E978
:1052100096E00E94E505809129011F928F9381E914
:1052200096E09F938F930E947E068FE896E00E94FF
:10523000E5058AE796E00E94E505809128011F9226
:105240008F9387E796E09F938F930E947E0685E772
:1052500096E00E94E5058EE596E00E94E5058091C6
:1052600027011F928F938BE596E09F938F930E9467
:105270007E0689E596E00E94E5058DB79EB74896C3
:105280000FB6F8949EBF0FBE8DBF1BC0CE51EC2F42
:10529000F0E0E85BFE4F80818093710312C061E013
:1052A00003C061E006C06AE0809171030E94CB25D3
:1052B00008C0809171030E946E2603C08EEF96E0B5
:1052C00013C080917103882369F01F928F9388EF38
:1052D00096E09F938F930E947E060F900F900F9001
:1052E0000F9004C085EF96E00E94E50581E006C0BE
:1052F0001092720380E002C080E000CFCF91089549
:105300000E9487296894B1110C94162A08950E946E
:10531000FB2988F09F5798F0B92F9927B751B0F023
:10532000E1F0660F771F881F991F1AF0BA95C9F729
:1053300014C0B13091F00E94152AB1E008950C9488
:10534000152A672F782F8827B85F39F0B93FCCF33B
:10535000869577956795B395D9F73EF490958095A6
:10536000709561957F4F8F4F9F4F0895E89409C0C6
:1053700097FB3EF490958095709561957F4F8F4F88
:105380009F4F9923A9F0F92F96E9BB279395F6959E
:10539000879577956795B795F111F8CFFAF4BB0F1C
:1053A00011F460FF1BC06F5F7F4F8F4F9F4F16C080
:1053B000882311F096E911C0772321F09EE8872F0A
:1053C000762F05C0662371F096E8862F70E060E0C6
:1053D0002AF09A95660F771F881FDAF7880F96953F
:1053E000879597F9089557FD9058440F551F59F028
:1053F0005F3F71F04795880F97FB991F61F09F3FC2
:1054000079F087950895121613061406551FF2CFEA
:105410004695F1DF08C0161617061806991FF1CF3A
:1054200086957105610508940895E894BB27662761
:105430007727CB0197F908950E942F2A0C94A02A70
:105440000E94922A38F00E94992A20F0952311F0A8
:105450000C94892A0C948F2A11240C94162A0E94E9
:10546000F32970F3959FC1F3950F50E0551F629F8C
:10547000F001729FBB27F00DB11D639FAA27F00DAD
:10548000B11DAA1F649F6627B00DA11D661F829FD4
:105490002227B00DA11D621F739FB00DA11D621FB9
:1054A000839FA00D611D221F749F3327A00D611DD6
:1054B000231F849F600D211D822F762F6A2F1124B8
:1054C0009F5750409AF0F1F088234AF0EE0FFF1FEB
:1054D000BB1F661F771F881F91505040A9F79E3F42
:1054E000510580F00C94892A0C94162A5F3FE4F34E
:1054F000983ED4F3869577956795B795F795E79598
:105500009F5FC1F7FE2B880F911D9695879597F9A0
:10551000089597F99F6780E870E060E008959FEF35
:1055200080EC089500240A9416161706180609063A
:10553000089500240A941216130614060506089509
:10554000092E0394000C11F4882352F0BB0F40F491
:10555000BF2B11F460FF04C06F5F7F4F8F4F9F4FD1
:10556000089597FB072E16F4009407D077FD09D015
:105570000E94CB2A07FC05D03EF4909581959F4F61
:105580000895709561957F4F0895EE0FFF1F059068
:10559000F491E02D0994AA1BBB1B51E107C0AA1F7F
:1055A000BB1FA617B70710F0A61BB70B881F991FC4
:1055B0005A95A9F780959095BC01CD010895F8946E
:0255C000FFCF1B
:1055C200FFFFA514000069FFFF27E78C000000FF22
:1055D200FF9464000576010000FF810C110DEE0CB2
:1055E200B80C840C0158032808140A321E7965731A
:1055F200006E6F00404D36227D043004FA03D8035A
:1056020064037D039603AF03010203040506070842
:0256120009008D
:106800008800EA44E944E244040005000600070069
:10681000080009000A000B000C000D000E000F001C
:1068200010001100120013001400150016001700CC
:10683000180019001A001B001C001D001E001F007C
:10684000200021002200230024002500260027002C
:10685000280029002A002B002C002D002E002F00DC
:10686000300031A232003300340035A13600370049
:10687000380082003A003B003C003D003E003F00F3
:1068800040004100420043004400450046004700EC
:10689000480049004A004B004C004D004E004F009C
:1068A000500051005200530038005400550056006B
:1068B000580059005A005B005C005D005E005F00FC
:1068C00060006100620063006400650057006700BB
:1068D000CD4469006A006B006C006D006E006F00B3
:1068E0007000710072006620890087008A008B00AA
:1068F000E000E100E200E300E400E500E600E7007C
:106900008800010001000100EA4401000100E244A6
:106910000100010001000100460001004A004B0097
:10692000010001004700480001000100E9440100A6
:106930000100010001000100010001003A003B00DC
:106940003C003D003E003F0040004100420043004B
:10695000010035004C0001000100440045005200D8
:1069600049000100010050004F0029004D004E0079
:1069700051000100010001000100010001000100BF
:1069800001000100010001000100010001000100FF
:1069900001000100010001000100010001004D00A3
:1069A0004A004E004B0001000100010001000100FF
:1069B00001000100010001000100010001000100CF
:1069C00001000100010001000100650001006700F5
:1069D000010069006A006B006C006D006E006F00C2
:1069E0007000710072000100890087008A008B002E
:1069F0000100010001000100010001000100E700A9
:106A00008800010001000100EA4401000100E244A5
:106A10000100010001000100460001004A004B0096
:106A2000010001004700480001000100E9440100A5
:106A30000100010001000100010001003A003B00DB
:106A40003C003D003E003F0040004100420043004A
:106A5000010035004C0001000100440045005200D7
:106A600049000100010050004F0029004D004E0078
:106A700051000100010001000100010001000100BE
:106A800001000100010001000100010001000100FE
:106A900001000100010001000100010001004D00A2
:106AA0004A004E004B0001000100010001000100FE
:106AB00001000100010001000100010001000100CE
:106AC00001000100010001000100650001006700F4
:106AD000010069006A006B006C006D006E006F00C1
:106AE0007000710072000100890087008A008B002D
:106AF0000100010001000100010001000100E700A8
:00000001FF
